{
  "_format": "hh-sol-artifact-1",
  "contractName": "VehiclePassportiNFT",
  "sourceName": "contracts/Lock.sol",
  "abi": [
    {
      "inputs": [],
      "stateMutability": "nonpayable",
      "type": "constructor"
    },
    {
      "inputs": [],
      "name": "AccessControlBadConfirmation",
      "type": "error"
    },
    {
      "inputs": [
        {
          "internalType": "address",
          "name": "account",
          "type": "address"
        },
        {
          "internalType": "bytes32",
          "name": "neededRole",
          "type": "bytes32"
        }
      ],
      "name": "AccessControlUnauthorizedAccount",
      "type": "error"
    },
    {
      "inputs": [],
      "name": "ERC721EnumerableForbiddenBatchMint",
      "type": "error"
    },
    {
      "inputs": [
        {
          "internalType": "address",
          "name": "sender",
          "type": "address"
        },
        {
          "internalType": "uint256",
          "name": "tokenId",
          "type": "uint256"
        },
        {
          "internalType": "address",
          "name": "owner",
          "type": "address"
        }
      ],
      "name": "ERC721IncorrectOwner",
      "type": "error"
    },
    {
      "inputs": [
        {
          "internalType": "address",
          "name": "operator",
          "type": "address"
        },
        {
          "internalType": "uint256",
          "name": "tokenId",
          "type": "uint256"
        }
      ],
      "name": "ERC721InsufficientApproval",
      "type": "error"
    },
    {
      "inputs": [
        {
          "internalType": "address",
          "name": "approver",
          "type": "address"
        }
      ],
      "name": "ERC721InvalidApprover",
      "type": "error"
    },
    {
      "inputs": [
        {
          "internalType": "address",
          "name": "operator",
          "type": "address"
        }
      ],
      "name": "ERC721InvalidOperator",
      "type": "error"
    },
    {
      "inputs": [
        {
          "internalType": "address",
          "name": "owner",
          "type": "address"
        }
      ],
      "name": "ERC721InvalidOwner",
      "type": "error"
    },
    {
      "inputs": [
        {
          "internalType": "address",
          "name": "receiver",
          "type": "address"
        }
      ],
      "name": "ERC721InvalidReceiver",
      "type": "error"
    },
    {
      "inputs": [
        {
          "internalType": "address",
          "name": "sender",
          "type": "address"
        }
      ],
      "name": "ERC721InvalidSender",
      "type": "error"
    },
    {
      "inputs": [
        {
          "internalType": "uint256",
          "name": "tokenId",
          "type": "uint256"
        }
      ],
      "name": "ERC721NonexistentToken",
      "type": "error"
    },
    {
      "inputs": [
        {
          "internalType": "address",
          "name": "owner",
          "type": "address"
        },
        {
          "internalType": "uint256",
          "name": "index",
          "type": "uint256"
        }
      ],
      "name": "ERC721OutOfBoundsIndex",
      "type": "error"
    },
    {
      "anonymous": false,
      "inputs": [
        {
          "indexed": true,
          "internalType": "address",
          "name": "owner",
          "type": "address"
        },
        {
          "indexed": true,
          "internalType": "address",
          "name": "approved",
          "type": "address"
        },
        {
          "indexed": true,
          "internalType": "uint256",
          "name": "tokenId",
          "type": "uint256"
        }
      ],
      "name": "Approval",
      "type": "event"
    },
    {
      "anonymous": false,
      "inputs": [
        {
          "indexed": true,
          "internalType": "address",
          "name": "owner",
          "type": "address"
        },
        {
          "indexed": true,
          "internalType": "address",
          "name": "operator",
          "type": "address"
        },
        {
          "indexed": false,
          "internalType": "bool",
          "name": "approved",
          "type": "bool"
        }
      ],
      "name": "ApprovalForAll",
      "type": "event"
    },
    {
      "anonymous": false,
      "inputs": [
        {
          "indexed": true,
          "internalType": "uint256",
          "name": "tokenId",
          "type": "uint256"
        }
      ],
      "name": "Delisted",
      "type": "event"
    },
    {
      "anonymous": false,
      "inputs": [
        {
          "indexed": true,
          "internalType": "uint256",
          "name": "tokenId",
          "type": "uint256"
        },
        {
          "indexed": false,
          "internalType": "string",
          "name": "newImageURI",
          "type": "string"
        }
      ],
      "name": "ImageUpdated",
      "type": "event"
    },
    {
      "anonymous": false,
      "inputs": [
        {
          "indexed": true,
          "internalType": "uint256",
          "name": "tokenId",
          "type": "uint256"
        },
        {
          "indexed": false,
          "internalType": "uint256",
          "name": "price",
          "type": "uint256"
        }
      ],
      "name": "Listed",
      "type": "event"
    },
    {
      "anonymous": false,
      "inputs": [
        {
          "indexed": true,
          "internalType": "uint256",
          "name": "tokenId",
          "type": "uint256"
        },
        {
          "indexed": true,
          "internalType": "address",
          "name": "owner",
          "type": "address"
        },
        {
          "indexed": false,
          "internalType": "string",
          "name": "vin",
          "type": "string"
        }
      ],
      "name": "NFTMinted",
      "type": "event"
    },
    {
      "anonymous": false,
      "inputs": [
        {
          "indexed": true,
          "internalType": "uint256",
          "name": "tokenId",
          "type": "uint256"
        },
        {
          "indexed": true,
          "internalType": "address",
          "name": "from",
          "type": "address"
        },
        {
          "indexed": true,
          "internalType": "address",
          "name": "to",
          "type": "address"
        },
        {
          "indexed": false,
          "internalType": "uint256",
          "name": "price",
          "type": "uint256"
        }
      ],
      "name": "Purchased",
      "type": "event"
    },
    {
      "anonymous": false,
      "inputs": [
        {
          "indexed": true,
          "internalType": "bytes32",
          "name": "role",
          "type": "bytes32"
        },
        {
          "indexed": true,
          "internalType": "bytes32",
          "name": "previousAdminRole",
          "type": "bytes32"
        },
        {
          "indexed": true,
          "internalType": "bytes32",
          "name": "newAdminRole",
          "type": "bytes32"
        }
      ],
      "name": "RoleAdminChanged",
      "type": "event"
    },
    {
      "anonymous": false,
      "inputs": [
        {
          "indexed": true,
          "internalType": "bytes32",
          "name": "role",
          "type": "bytes32"
        },
        {
          "indexed": true,
          "internalType": "address",
          "name": "account",
          "type": "address"
        },
        {
          "indexed": true,
          "internalType": "address",
          "name": "sender",
          "type": "address"
        }
      ],
      "name": "RoleGranted",
      "type": "event"
    },
    {
      "anonymous": false,
      "inputs": [
        {
          "indexed": true,
          "internalType": "bytes32",
          "name": "role",
          "type": "bytes32"
        },
        {
          "indexed": true,
          "internalType": "address",
          "name": "account",
          "type": "address"
        },
        {
          "indexed": true,
          "internalType": "address",
          "name": "sender",
          "type": "address"
        }
      ],
      "name": "RoleRevoked",
      "type": "event"
    },
    {
      "anonymous": false,
      "inputs": [
        {
          "indexed": true,
          "internalType": "uint256",
          "name": "tokenId",
          "type": "uint256"
        },
        {
          "indexed": false,
          "internalType": "uint256",
          "name": "newMileage",
          "type": "uint256"
        },
        {
          "indexed": false,
          "internalType": "string",
          "name": "serviceDetails",
          "type": "string"
        },
        {
          "indexed": false,
          "internalType": "string",
          "name": "dataHash",
          "type": "string"
        }
      ],
      "name": "ServiceRecordAdded",
      "type": "event"
    },
    {
      "anonymous": false,
      "inputs": [
        {
          "indexed": true,
          "internalType": "address",
          "name": "from",
          "type": "address"
        },
        {
          "indexed": true,
          "internalType": "address",
          "name": "to",
          "type": "address"
        },
        {
          "indexed": true,
          "internalType": "uint256",
          "name": "tokenId",
          "type": "uint256"
        }
      ],
      "name": "Transfer",
      "type": "event"
    },
    {
      "inputs": [],
      "name": "DEALER_ROLE",
      "outputs": [
        {
          "internalType": "bytes32",
          "name": "",
          "type": "bytes32"
        }
      ],
      "stateMutability": "view",
      "type": "function"
    },
    {
      "inputs": [],
      "name": "DEFAULT_ADMIN_ROLE",
      "outputs": [
        {
          "internalType": "bytes32",
          "name": "",
          "type": "bytes32"
        }
      ],
      "stateMutability": "view",
      "type": "function"
    },
    {
      "inputs": [],
      "name": "SERVICE_CENTER_ROLE",
      "outputs": [
        {
          "internalType": "bytes32",
          "name": "",
          "type": "bytes32"
        }
      ],
      "stateMutability": "view",
      "type": "function"
    },
    {
      "inputs": [],
      "name": "SERVICE_INTERVAL_MILEAGE",
      "outputs": [
        {
          "internalType": "uint256",
          "name": "",
          "type": "uint256"
        }
      ],
      "stateMutability": "view",
      "type": "function"
    },
    {
      "inputs": [],
      "name": "SERVICE_INTERVAL_TIME",
      "outputs": [
        {
          "internalType": "uint256",
          "name": "",
          "type": "uint256"
        }
      ],
      "stateMutability": "view",
      "type": "function"
    },
    {
      "inputs": [
        {
          "internalType": "uint256",
          "name": "_tokenId",
          "type": "uint256"
        },
        {
          "internalType": "uint256",
          "name": "_newMileage",
          "type": "uint256"
        },
        {
          "internalType": "string",
          "name": "_serviceDetails",
          "type": "string"
        },
        {
          "internalType": "string",
          "name": "_dataHash",
          "type": "string"
        }
      ],
      "name": "addServiceRecord",
      "outputs": [],
      "stateMutability": "nonpayable",
      "type": "function"
    },
    {
      "inputs": [
        {
          "internalType": "address",
          "name": "to",
          "type": "address"
        },
        {
          "internalType": "uint256",
          "name": "tokenId",
          "type": "uint256"
        }
      ],
      "name": "approve",
      "outputs": [],
      "stateMutability": "nonpayable",
      "type": "function"
    },
    {
      "inputs": [
        {
          "internalType": "address",
          "name": "owner",
          "type": "address"
        }
      ],
      "name": "balanceOf",
      "outputs": [
        {
          "internalType": "uint256",
          "name": "",
          "type": "uint256"
        }
      ],
      "stateMutability": "view",
      "type": "function"
    },
    {
      "inputs": [
        {
          "internalType": "uint256",
          "name": "_tokenId",
          "type": "uint256"
        }
      ],
      "name": "buyNFT",
      "outputs": [],
      "stateMutability": "payable",
      "type": "function"
    },
    {
      "inputs": [
        {
          "internalType": "uint256",
          "name": "_tokenId",
          "type": "uint256"
        }
      ],
      "name": "calculateTrustScore",
      "outputs": [
        {
          "internalType": "uint8",
          "name": "",
          "type": "uint8"
        }
      ],
      "stateMutability": "view",
      "type": "function"
    },
    {
      "inputs": [
        {
          "internalType": "uint256",
          "name": "_tokenId",
          "type": "uint256"
        }
      ],
      "name": "delistNFT",
      "outputs": [],
      "stateMutability": "nonpayable",
      "type": "function"
    },
    {
      "inputs": [
        {
          "internalType": "uint256",
          "name": "tokenId",
          "type": "uint256"
        }
      ],
      "name": "getApproved",
      "outputs": [
        {
          "internalType": "address",
          "name": "",
          "type": "address"
        }
      ],
      "stateMutability": "view",
      "type": "function"
    },
    {
      "inputs": [
        {
          "internalType": "uint256",
          "name": "_tokenId",
          "type": "uint256"
        }
      ],
      "name": "getMaintenanceStatus",
      "outputs": [
        {
          "internalType": "string",
          "name": "",
          "type": "string"
        }
      ],
      "stateMutability": "view",
      "type": "function"
    },
    {
      "inputs": [
        {
          "internalType": "bytes32",
          "name": "role",
          "type": "bytes32"
        }
      ],
      "name": "getRoleAdmin",
      "outputs": [
        {
          "internalType": "bytes32",
          "name": "",
          "type": "bytes32"
        }
      ],
      "stateMutability": "view",
      "type": "function"
    },
    {
      "inputs": [
        {
          "internalType": "uint256",
          "name": "_tokenId",
          "type": "uint256"
        }
      ],
      "name": "getServiceHistoryCount",
      "outputs": [
        {
          "internalType": "uint256",
          "name": "",
          "type": "uint256"
        }
      ],
      "stateMutability": "view",
      "type": "function"
    },
    {
      "inputs": [
        {
          "internalType": "uint256",
          "name": "_tokenId",
          "type": "uint256"
        },
        {
          "internalType": "uint256",
          "name": "index",
          "type": "uint256"
        }
      ],
      "name": "getServiceRecord",
      "outputs": [
        {
          "components": [
            {
              "internalType": "string",
              "name": "details",
              "type": "string"
            },
            {
              "internalType": "uint256",
              "name": "timestamp",
              "type": "uint256"
            },
            {
              "internalType": "string",
              "name": "dataHash",
              "type": "string"
            }
          ],
          "internalType": "struct VehiclePassportiNFT.ServiceRecord",
          "name": "",
          "type": "tuple"
        }
      ],
      "stateMutability": "view",
      "type": "function"
    },
    {
      "inputs": [
        {
          "internalType": "uint256",
          "name": "_tokenId",
          "type": "uint256"
        }
      ],
      "name": "getVehicleDetails",
      "outputs": [
        {
          "components": [
            {
              "internalType": "string",
              "name": "vin",
              "type": "string"
            },
            {
              "internalType": "string",
              "name": "make",
              "type": "string"
            },
            {
              "internalType": "string",
              "name": "model",
              "type": "string"
            },
            {
              "internalType": "uint256",
              "name": "year",
              "type": "uint256"
            },
            {
              "internalType": "uint256",
              "name": "purchasePrice",
              "type": "uint256"
            },
            {
              "internalType": "uint256",
              "name": "purchaseDate",
              "type": "uint256"
            },
            {
              "internalType": "uint256",
              "name": "currentMileage",
              "type": "uint256"
            },
            {
              "internalType": "uint256",
              "name": "lastServiceMileage",
              "type": "uint256"
            },
            {
              "internalType": "uint256",
              "name": "lastServiceDate",
              "type": "uint256"
            },
            {
              "internalType": "string",
              "name": "imageURI",
              "type": "string"
            }
          ],
          "internalType": "struct VehiclePassportiNFT.VehicleData",
          "name": "",
          "type": "tuple"
        }
      ],
      "stateMutability": "view",
      "type": "function"
    },
    {
      "inputs": [
        {
          "internalType": "address",
          "name": "account",
          "type": "address"
        }
      ],
      "name": "grantDealer",
      "outputs": [],
      "stateMutability": "nonpayable",
      "type": "function"
    },
    {
      "inputs": [
        {
          "internalType": "bytes32",
          "name": "role",
          "type": "bytes32"
        },
        {
          "internalType": "address",
          "name": "account",
          "type": "address"
        }
      ],
      "name": "grantRole",
      "outputs": [],
      "stateMutability": "nonpayable",
      "type": "function"
    },
    {
      "inputs": [
        {
          "internalType": "address",
          "name": "account",
          "type": "address"
        }
      ],
      "name": "grantServiceCenter",
      "outputs": [],
      "stateMutability": "nonpayable",
      "type": "function"
    },
    {
      "inputs": [
        {
          "internalType": "bytes32",
          "name": "role",
          "type": "bytes32"
        },
        {
          "internalType": "address",
          "name": "account",
          "type": "address"
        }
      ],
      "name": "hasRole",
      "outputs": [
        {
          "internalType": "bool",
          "name": "",
          "type": "bool"
        }
      ],
      "stateMutability": "view",
      "type": "function"
    },
    {
      "inputs": [
        {
          "internalType": "address",
          "name": "owner",
          "type": "address"
        },
        {
          "internalType": "address",
          "name": "operator",
          "type": "address"
        }
      ],
      "name": "isApprovedForAll",
      "outputs": [
        {
          "internalType": "bool",
          "name": "",
          "type": "bool"
        }
      ],
      "stateMutability": "view",
      "type": "function"
    },
    {
      "inputs": [
        {
          "internalType": "uint256",
          "name": "_tokenId",
          "type": "uint256"
        },
        {
          "internalType": "uint256",
          "name": "_price",
          "type": "uint256"
        }
      ],
      "name": "listNFT",
      "outputs": [],
      "stateMutability": "nonpayable",
      "type": "function"
    },
    {
      "inputs": [
        {
          "internalType": "uint256",
          "name": "",
          "type": "uint256"
        }
      ],
      "name": "listingPrice",
      "outputs": [
        {
          "internalType": "uint256",
          "name": "",
          "type": "uint256"
        }
      ],
      "stateMutability": "view",
      "type": "function"
    },
    {
      "inputs": [
        {
          "internalType": "address",
          "name": "_owner",
          "type": "address"
        },
        {
          "internalType": "string",
          "name": "_vin",
          "type": "string"
        },
        {
          "internalType": "string",
          "name": "_make",
          "type": "string"
        },
        {
          "internalType": "string",
          "name": "_model",
          "type": "string"
        },
        {
          "internalType": "uint256",
          "name": "_year",
          "type": "uint256"
        },
        {
          "internalType": "uint256",
          "name": "_purchasePrice",
          "type": "uint256"
        },
        {
          "internalType": "uint256",
          "name": "_initialMileage",
          "type": "uint256"
        },
        {
          "internalType": "string",
          "name": "_imageURI",
          "type": "string"
        }
      ],
      "name": "mintVehicle",
      "outputs": [
        {
          "internalType": "uint256",
          "name": "",
          "type": "uint256"
        }
      ],
      "stateMutability": "nonpayable",
      "type": "function"
    },
    {
      "inputs": [],
      "name": "name",
      "outputs": [
        {
          "internalType": "string",
          "name": "",
          "type": "string"
        }
      ],
      "stateMutability": "view",
      "type": "function"
    },
    {
      "inputs": [
        {
          "internalType": "uint256",
          "name": "tokenId",
          "type": "uint256"
        }
      ],
      "name": "ownerOf",
      "outputs": [
        {
          "internalType": "address",
          "name": "",
          "type": "address"
        }
      ],
      "stateMutability": "view",
      "type": "function"
    },
    {
      "inputs": [
        {
          "internalType": "bytes32",
          "name": "role",
          "type": "bytes32"
        },
        {
          "internalType": "address",
          "name": "callerConfirmation",
          "type": "address"
        }
      ],
      "name": "renounceRole",
      "outputs": [],
      "stateMutability": "nonpayable",
      "type": "function"
    },
    {
      "inputs": [
        {
          "internalType": "bytes32",
          "name": "role",
          "type": "bytes32"
        },
        {
          "internalType": "address",
          "name": "account",
          "type": "address"
        }
      ],
      "name": "revokeRole",
      "outputs": [],
      "stateMutability": "nonpayable",
      "type": "function"
    },
    {
      "inputs": [
        {
          "internalType": "address",
          "name": "from",
          "type": "address"
        },
        {
          "internalType": "address",
          "name": "to",
          "type": "address"
        },
        {
          "internalType": "uint256",
          "name": "tokenId",
          "type": "uint256"
        }
      ],
      "name": "safeTransferFrom",
      "outputs": [],
      "stateMutability": "nonpayable",
      "type": "function"
    },
    {
      "inputs": [
        {
          "internalType": "address",
          "name": "from",
          "type": "address"
        },
        {
          "internalType": "address",
          "name": "to",
          "type": "address"
        },
        {
          "internalType": "uint256",
          "name": "tokenId",
          "type": "uint256"
        },
        {
          "internalType": "bytes",
          "name": "data",
          "type": "bytes"
        }
      ],
      "name": "safeTransferFrom",
      "outputs": [],
      "stateMutability": "nonpayable",
      "type": "function"
    },
    {
      "inputs": [
        {
          "internalType": "uint256",
          "name": "",
          "type": "uint256"
        },
        {
          "internalType": "uint256",
          "name": "",
          "type": "uint256"
        }
      ],
      "name": "serviceHistory",
      "outputs": [
        {
          "internalType": "string",
          "name": "details",
          "type": "string"
        },
        {
          "internalType": "uint256",
          "name": "timestamp",
          "type": "uint256"
        },
        {
          "internalType": "string",
          "name": "dataHash",
          "type": "string"
        }
      ],
      "stateMutability": "view",
      "type": "function"
    },
    {
      "inputs": [
        {
          "internalType": "address",
          "name": "operator",
          "type": "address"
        },
        {
          "internalType": "bool",
          "name": "approved",
          "type": "bool"
        }
      ],
      "name": "setApprovalForAll",
      "outputs": [],
      "stateMutability": "nonpayable",
      "type": "function"
    },
    {
      "inputs": [
        {
          "internalType": "bytes4",
          "name": "interfaceId",
          "type": "bytes4"
        }
      ],
      "name": "supportsInterface",
      "outputs": [
        {
          "internalType": "bool",
          "name": "",
          "type": "bool"
        }
      ],
      "stateMutability": "view",
      "type": "function"
    },
    {
      "inputs": [],
      "name": "symbol",
      "outputs": [
        {
          "internalType": "string",
          "name": "",
          "type": "string"
        }
      ],
      "stateMutability": "view",
      "type": "function"
    },
    {
      "inputs": [
        {
          "internalType": "uint256",
          "name": "index",
          "type": "uint256"
        }
      ],
      "name": "tokenByIndex",
      "outputs": [
        {
          "internalType": "uint256",
          "name": "",
          "type": "uint256"
        }
      ],
      "stateMutability": "view",
      "type": "function"
    },
    {
      "inputs": [
        {
          "internalType": "address",
          "name": "owner",
          "type": "address"
        },
        {
          "internalType": "uint256",
          "name": "index",
          "type": "uint256"
        }
      ],
      "name": "tokenOfOwnerByIndex",
      "outputs": [
        {
          "internalType": "uint256",
          "name": "",
          "type": "uint256"
        }
      ],
      "stateMutability": "view",
      "type": "function"
    },
    {
      "inputs": [
        {
          "internalType": "uint256",
          "name": "tokenId",
          "type": "uint256"
        }
      ],
      "name": "tokenURI",
      "outputs": [
        {
          "internalType": "string",
          "name": "",
          "type": "string"
        }
      ],
      "stateMutability": "view",
      "type": "function"
    },
    {
      "inputs": [],
      "name": "totalSupply",
      "outputs": [
        {
          "internalType": "uint256",
          "name": "",
          "type": "uint256"
        }
      ],
      "stateMutability": "view",
      "type": "function"
    },
    {
      "inputs": [
        {
          "internalType": "address",
          "name": "from",
          "type": "address"
        },
        {
          "internalType": "address",
          "name": "to",
          "type": "address"
        },
        {
          "internalType": "uint256",
          "name": "tokenId",
          "type": "uint256"
        }
      ],
      "name": "transferFrom",
      "outputs": [],
      "stateMutability": "nonpayable",
      "type": "function"
    }
  ],
  "bytecode": "0x608060405234801561001057600080fd5b506040518060400160405280601581526020017f56656869636c652050617373706f727420694e4654000000000000000000000081525060405180604001604052806005815260200164565041535360d81b8152508160009081610074919061023c565b506001610081828261023c565b50610091915060009050336100ed565b506100bc7fcf75f067314df4d0527f2a9e12148d8bd7c8a3f7235b2171d24fa195d2c3ecb9336100ed565b506100e77fe00629f427c6136ae9b856b472ff74184d9d0bee21b9336d8fbb33b66079065a336100ed565b506102fa565b6000828152600a602090815260408083206001600160a01b038516845290915281205460ff16610193576000838152600a602090815260408083206001600160a01b03861684529091529020805460ff1916600117905561014b3390565b6001600160a01b0316826001600160a01b0316847f2f8788117e7eff1d82e926ec794901d17c78024a50270940304540a733656f0d60405160405180910390a4506001610197565b5060005b92915050565b634e487b7160e01b600052604160045260246000fd5b600181811c908216806101c757607f821691505b6020821081036101e757634e487b7160e01b600052602260045260246000fd5b50919050565b601f82111561023757806000526020600020601f840160051c810160208510156102145750805b601f840160051c820191505b818110156102345760008155600101610220565b50505b505050565b81516001600160401b038111156102555761025561019d565b6102698161026384546101b3565b846101ed565b6020601f82116001811461029d57600083156102855750848201515b600019600385901b1c1916600184901b178455610234565b600084815260208120601f198516915b828110156102cd57878501518255602094850194600190920191016102ad565b50848210156102eb5786840151600019600387901b60f8161c191681555b50505050600190811b01905550565b613c34806103096000396000f3fe60806040526004361061023b5760003560e01c806370a082311161012e578063c82205de116100ab578063d759ee591161006f578063d759ee591461071a578063defee5db1461073a578063e985e9c51461075a578063f3cd27421461077a578063fdc0660b146107a957600080fd5b8063c82205de1461066d578063c87b56dd1461068d578063cb917b9c146106ad578063cc0303a0146106cd578063d547741f146106fa57600080fd5b8063a217fddf116100f2578063a217fddf146105e0578063a22cb465146105f5578063a9ff814114610615578063b88d4fde1461062d578063b8d8e66f1461064d57600080fd5b806370a082311461054b57806391d148541461056b57806394383f141461058b57806394aa46f4146105ab57806395d89b41146105cb57600080fd5b80632ebfb1f3116101bc57806342842e0e1161018057806342842e0e146104a45780634f6ccce7146104c457806351ed8288146104e45780636352211e146104f75780636b6463591461051757600080fd5b80632ebfb1f3146103de5780632f2ff15d146104105780632f745c591461043057806334d6ff4c1461045057806336568abe1461048457600080fd5b80630e5ec651116102035780630e5ec6511461031e578063115bc9361461034c57806318160ddd1461037957806323b872dd1461038e578063248a9ca3146103ae57600080fd5b806301ffc9a71461024057806304314f491461027557806306fdde03146102a2578063081812fc146102c4578063095ea7b3146102fc575b600080fd5b34801561024c57600080fd5b5061026061025b366004613269565b6107bf565b60405190151581526020015b60405180910390f35b34801561028157600080fd5b50610295610290366004613286565b6107d0565b60405161026c91906132ef565b3480156102ae57600080fd5b506102b7610ad4565b60405161026c91906133a7565b3480156102d057600080fd5b506102e46102df366004613286565b610b66565b6040516001600160a01b03909116815260200161026c565b34801561030857600080fd5b5061031c6103173660046133d6565b610b8f565b005b34801561032a57600080fd5b5061033e610339366004613286565b610b9e565b60405190815260200161026c565b34801561035857600080fd5b5061033e610367366004613286565b600c6020526000908152604090205481565b34801561038557600080fd5b5060085461033e565b34801561039a57600080fd5b5061031c6103a9366004613400565b610bbd565b3480156103ba57600080fd5b5061033e6103c9366004613286565b6000908152600a602052604090206001015490565b3480156103ea57600080fd5b506103fe6103f9366004613286565b610c4d565b60405160ff909116815260200161026c565b34801561041c57600080fd5b5061031c61042b36600461343d565b610f98565b34801561043c57600080fd5b5061033e61044b3660046133d6565b610fbd565b34801561045c57600080fd5b5061033e7fcf75f067314df4d0527f2a9e12148d8bd7c8a3f7235b2171d24fa195d2c3ecb981565b34801561049057600080fd5b5061031c61049f36600461343d565b611022565b3480156104b057600080fd5b5061031c6104bf366004613400565b61105a565b3480156104d057600080fd5b5061033e6104df366004613286565b611075565b61031c6104f2366004613286565b6110ce565b34801561050357600080fd5b506102e4610512366004613286565b6113ef565b34801561052357600080fd5b5061033e7fe00629f427c6136ae9b856b472ff74184d9d0bee21b9336d8fbb33b66079065a81565b34801561055757600080fd5b5061033e610566366004613469565b6113fa565b34801561057757600080fd5b5061026061058636600461343d565b611442565b34801561059757600080fd5b5061031c6105a6366004613484565b61146d565b3480156105b757600080fd5b5061033e6105c6366004613556565b61157d565b3480156105d757600080fd5b506102b7611709565b3480156105ec57600080fd5b5061033e600081565b34801561060157600080fd5b5061031c610610366004613644565b611718565b34801561062157600080fd5b5061033e6301e1338081565b34801561063957600080fd5b5061031c610648366004613680565b611723565b34801561065957600080fd5b5061031c610668366004613469565b61173b565b34801561067957600080fd5b5061031c6106883660046136fc565b611770565b34801561069957600080fd5b506102b76106a8366004613286565b611949565b3480156106b957600080fd5b5061031c6106c8366004613286565b611cc4565b3480156106d957600080fd5b506106ed6106e8366004613484565b611dba565b60405161026c919061376c565b34801561070657600080fd5b5061031c61071536600461343d565b611fc5565b34801561072657600080fd5b506102b7610735366004613286565b611fea565b34801561074657600080fd5b5061031c610755366004613469565b612328565b34801561076657600080fd5b506102606107753660046137af565b61235d565b34801561078657600080fd5b5061079a610795366004613484565b61238b565b60405161026c939291906137d9565b3480156107b557600080fd5b5061033e61271081565b60006107ca826124e2565b92915050565b610826604051806101400160405280606081526020016060815260200160608152602001600081526020016000815260200160008152602001600081526020016000815260200160008152602001606081525090565b61082f826113ef565b506000828152600d602052604090819020815161014081019092528054829082906108599061380e565b80601f01602080910402602001604051908101604052809291908181526020018280546108859061380e565b80156108d25780601f106108a7576101008083540402835291602001916108d2565b820191906000526020600020905b8154815290600101906020018083116108b557829003601f168201915b505050505081526020016001820180546108eb9061380e565b80601f01602080910402602001604051908101604052809291908181526020018280546109179061380e565b80156109645780601f1061093957610100808354040283529160200191610964565b820191906000526020600020905b81548152906001019060200180831161094757829003601f168201915b5050505050815260200160028201805461097d9061380e565b80601f01602080910402602001604051908101604052809291908181526020018280546109a99061380e565b80156109f65780601f106109cb576101008083540402835291602001916109f6565b820191906000526020600020905b8154815290600101906020018083116109d957829003601f168201915b50505050508152602001600382015481526020016004820154815260200160058201548152602001600682015481526020016007820154815260200160088201548152602001600982018054610a4b9061380e565b80601f0160208091040260200160405190810160405280929190818152602001828054610a779061380e565b8015610ac45780601f10610a9957610100808354040283529160200191610ac4565b820191906000526020600020905b815481529060010190602001808311610aa757829003601f168201915b5050505050815250509050919050565b606060008054610ae39061380e565b80601f0160208091040260200160405190810160405280929190818152602001828054610b0f9061380e565b8015610b5c5780601f10610b3157610100808354040283529160200191610b5c565b820191906000526020600020905b815481529060010190602001808311610b3f57829003601f168201915b5050505050905090565b6000610b7182612507565b506000828152600460205260409020546001600160a01b03166107ca565b610b9a828233612540565b5050565b6000610ba9826113ef565b50506000908152600e602052604090205490565b6001600160a01b038216610bec57604051633250574960e11b8152600060048201526024015b60405180910390fd5b6000610bf983833361254d565b9050836001600160a01b0316816001600160a01b031614610c47576040516364283d7b60e01b81526001600160a01b0380861660048301526024820184905282166044820152606401610be3565b50505050565b6000610c58826113ef565b506000828152600d602052604080822081516101408101909252805482908290610c819061380e565b80601f0160208091040260200160405190810160405280929190818152602001828054610cad9061380e565b8015610cfa5780601f10610ccf57610100808354040283529160200191610cfa565b820191906000526020600020905b815481529060010190602001808311610cdd57829003601f168201915b50505050508152602001600182018054610d139061380e565b80601f0160208091040260200160405190810160405280929190818152602001828054610d3f9061380e565b8015610d8c5780601f10610d6157610100808354040283529160200191610d8c565b820191906000526020600020905b815481529060010190602001808311610d6f57829003601f168201915b50505050508152602001600282018054610da59061380e565b80601f0160208091040260200160405190810160405280929190818152602001828054610dd19061380e565b8015610e1e5780601f10610df357610100808354040283529160200191610e1e565b820191906000526020600020905b815481529060010190602001808311610e0157829003601f168201915b50505050508152602001600382015481526020016004820154815260200160058201548152602001600682015481526020016007820154815260200160088201548152602001600982018054610e739061380e565b80601f0160208091040260200160405190810160405280929190818152602001828054610e9f9061380e565b8015610eec5780601f10610ec157610100808354040283529160200191610eec565b820191906000526020600020905b815481529060010190602001808311610ecf57829003601f168201915b505050919092525050506000848152600e60205260409020549091506064610f196301e13380600261385e565b836101000151610f299190613875565b421115610f3e57610f3b601982613888565b90505b610f4b612710600261385e565b8360e00151610f5a9190613875565b8360c001511115610f7357610f70601482613888565b90505b6005821115610f8057600a015b60648160ff161115610f90575060645b949350505050565b6000828152600a6020526040902060010154610fb381612624565b610c478383612631565b6000610fc8836113fa565b8210610ff95760405163295f44f760e21b81526001600160a01b038416600482015260248101839052604401610be3565b506001600160a01b03919091166000908152600660209081526040808320938352929052205490565b6001600160a01b038116331461104b5760405163334bd91960e11b815260040160405180910390fd5b61105582826126c5565b505050565b61105583838360405180602001604052806000815250611723565b600061108060085490565b82106110a95760405163295f44f760e21b81526000600482015260248101839052604401610be3565b600882815481106110bc576110bc6138a1565b90600052602060002001549050919050565b6000818152600c6020526040812054906110e7836113ef565b9050600082116111435760405162461bcd60e51b815260206004820152602160248201527f56656869636c6550617373706f7274694e46543a206e6f7420666f722073616c6044820152606560f81b6064820152608401610be3565b813410156111a55760405162461bcd60e51b815260206004820152602960248201527f56656869636c6550617373706f7274694e46543a20696e73756666696369656e6044820152681d081c185e5b595b9d60ba1b6064820152608401610be3565b336001600160a01b038216036112125760405162461bcd60e51b815260206004820152602c60248201527f56656869636c6550617373706f7274694e46543a2063616e6e6f74206275792060448201526b1e5bdd5c881bdddb8813919560a21b6064820152608401610be3565b6000838152600c6020526040808220829055516001600160a01b0383169084908381818185875af1925050503d806000811461126a576040519150601f19603f3d011682016040523d82523d6000602084013e61126f565b606091505b50509050806112cc5760405162461bcd60e51b815260206004820152602360248201527f56656869636c6550617373706f7274694e46543a207061796d656e74206661696044820152621b195960ea1b6064820152608401610be3565b6112e782338660405180602001604052806000815250612732565b8234111561139b576000336112fc85346138b7565b604051600081818185875af1925050503d8060008114611338576040519150601f19603f3d011682016040523d82523d6000602084013e61133d565b606091505b50509050806113995760405162461bcd60e51b815260206004820152602260248201527f56656869636c6550617373706f7274694e46543a20726566756e64206661696c604482015261195960f21b6064820152608401610be3565b505b336001600160a01b0316826001600160a01b0316857f3fb02bfbf01f7dc3a4c6903acc6b06ca1d9af7647282593f46cbacefc288b602866040516113e191815260200190565b60405180910390a450505050565b60006107ca82612507565b60006001600160a01b038216611426576040516322718ad960e21b815260006004820152602401610be3565b506001600160a01b031660009081526003602052604090205490565b6000918252600a602090815260408084206001600160a01b0393909316845291905290205460ff1690565b33611477836113ef565b6001600160a01b0316146114cd5760405162461bcd60e51b815260206004820152601e60248201527f56656869636c6550617373706f7274694e46543a206e6f74206f776e657200006044820152606401610be3565b6000811161152c5760405162461bcd60e51b815260206004820152602660248201527f56656869636c6550617373706f7274694e46543a207072696365206d7573742060448201526506265203e20360d41b6064820152608401610be3565b6000828152600c6020526040908190208290555182907f1ea45e30b31292f9d7c5d37d275b2feca555f13f47dce0fdea2f47e8852ecd78906115719084815260200190565b60405180910390a25050565b60007fcf75f067314df4d0527f2a9e12148d8bd7c8a3f7235b2171d24fa195d2c3ecb96115a981612624565b600b546115b68b8261273d565b6040518061014001604052808b81526020018a815260200189815260200188815260200187815260200142815260200186815260200186815260200142815260200185815250600d600083815260200190815260200160002060008201518160000190816116249190613911565b50602082015160018201906116399082613911565b506040820151600282019061164e9082613911565b50606082015160038201556080820151600482015560a0820151600582015560c0820151600682015560e08201516007820155610100820151600882015561012082015160098201906116a19082613911565b5050600b8054915060006116b4836139d0565b91905055508a6001600160a01b0316817f06becd955c918828f6e985541acbf49cc842c9e9bd569fffc7698e721ef135758c6040516116f391906133a7565b60405180910390a39a9950505050505050505050565b606060018054610ae39061380e565b610b9a338383612757565b61172e848484610bbd565b610c4733858585856127f6565b600061174681612624565b6110557fcf75f067314df4d0527f2a9e12148d8bd7c8a3f7235b2171d24fa195d2c3ecb983612631565b7fe00629f427c6136ae9b856b472ff74184d9d0bee21b9336d8fbb33b66079065a61179a81612624565b6117a3856113ef565b5060008351116118035760405162461bcd60e51b815260206004820152602560248201527f56656869636c6550617373706f7274694e46543a2064657461696c73207265716044820152641d5a5c995960da1b6064820152608401610be3565b6000858152600d60205260409020600601548410156118795760405162461bcd60e51b815260206004820152602c60248201527f56656869636c6550617373706f7274694e46543a206d696c656167652063616e60448201526b6e6f7420646563726561736560a01b6064820152608401610be3565b6000858152600d602090815260408083206006810188905560078101889055426008909101819055600e835281842082516060810184528881528085019290925291810186905281546001810183559184529190922081519192600302019081906118e49082613911565b5060208201516001820155604082015160028201906119039082613911565b505050847fcfb9b910c9407317c179d9877eeb8078df0341764cfd7636229094204af73be785858560405161193a939291906139e9565b60405180910390a25050505050565b6000818152600260205260409020546060906001600160a01b03166119c25760405162461bcd60e51b815260206004820152602960248201527f56656869636c6550617373706f7274694e46543a20746f6b656e20646f6573206044820152681b9bdd08195e1a5cdd60ba1b6064820152608401610be3565b6000828152600d6020526040808220815161014081019092528054829082906119ea9061380e565b80601f0160208091040260200160405190810160405280929190818152602001828054611a169061380e565b8015611a635780601f10611a3857610100808354040283529160200191611a63565b820191906000526020600020905b815481529060010190602001808311611a4657829003601f168201915b50505050508152602001600182018054611a7c9061380e565b80601f0160208091040260200160405190810160405280929190818152602001828054611aa89061380e565b8015611af55780601f10611aca57610100808354040283529160200191611af5565b820191906000526020600020905b815481529060010190602001808311611ad857829003601f168201915b50505050508152602001600282018054611b0e9061380e565b80601f0160208091040260200160405190810160405280929190818152602001828054611b3a9061380e565b8015611b875780601f10611b5c57610100808354040283529160200191611b87565b820191906000526020600020905b815481529060010190602001808311611b6a57829003601f168201915b50505050508152602001600382015481526020016004820154815260200160058201548152602001600682015481526020016007820154815260200160088201548152602001600982018054611bdc9061380e565b80601f0160208091040260200160405190810160405280929190818152602001828054611c089061380e565b8015611c555780601f10611c2a57610100808354040283529160200191611c55565b820191906000526020600020905b815481529060010190602001808311611c3857829003601f168201915b50505050508152505090506000611c6b84612921565b826101200151604051602001611c82929190613a14565b6040516020818303038152906040529050611c9c816129b4565b604051602001611cac9190613af1565b60405160208183030381529060405292505050919050565b33611cce826113ef565b6001600160a01b031614611d245760405162461bcd60e51b815260206004820152601e60248201527f56656869636c6550617373706f7274694e46543a206e6f74206f776e657200006044820152606401610be3565b6000818152600c6020526040902054611d7f5760405162461bcd60e51b815260206004820152601f60248201527f56656869636c6550617373706f7274694e46543a206e6f74206c6973746564006044820152606401610be3565b6000818152600c60205260408082208290555182917fc40fdc946efe80191c467f60727c4abc08254a056035d467a4516a86005ab76391a250565b611dde60405180606001604052806060815260200160008152602001606081525090565b611de7836113ef565b506000838152600e60205260409020548210611e565760405162461bcd60e51b815260206004820152602860248201527f56656869636c6550617373706f7274694e46543a20696e646578206f7574206f6044820152676620626f756e647360c01b6064820152608401610be3565b6000838152600e60205260409020805483908110611e7657611e766138a1565b9060005260206000209060030201604051806060016040529081600082018054611e9f9061380e565b80601f0160208091040260200160405190810160405280929190818152602001828054611ecb9061380e565b8015611f185780601f10611eed57610100808354040283529160200191611f18565b820191906000526020600020905b815481529060010190602001808311611efb57829003601f168201915b5050505050815260200160018201548152602001600282018054611f3b9061380e565b80601f0160208091040260200160405190810160405280929190818152602001828054611f679061380e565b8015611fb45780601f10611f8957610100808354040283529160200191611fb4565b820191906000526020600020905b815481529060010190602001808311611f9757829003601f168201915b505050505081525050905092915050565b6000828152600a6020526040902060010154611fe081612624565b610c4783836126c5565b6060611ff5826113ef565b506000828152600d60205260408082208151610140810190925280548290829061201e9061380e565b80601f016020809104026020016040519081016040528092919081815260200182805461204a9061380e565b80156120975780601f1061206c57610100808354040283529160200191612097565b820191906000526020600020905b81548152906001019060200180831161207a57829003601f168201915b505050505081526020016001820180546120b09061380e565b80601f01602080910402602001604051908101604052809291908181526020018280546120dc9061380e565b80156121295780601f106120fe57610100808354040283529160200191612129565b820191906000526020600020905b81548152906001019060200180831161210c57829003601f168201915b505050505081526020016002820180546121429061380e565b80601f016020809104026020016040519081016040528092919081815260200182805461216e9061380e565b80156121bb5780601f10612190576101008083540402835291602001916121bb565b820191906000526020600020905b81548152906001019060200180831161219e57829003601f168201915b505050505081526020016003820154815260200160048201548152602001600582015481526020016006820154815260200160078201548152602001600882015481526020016009820180546122109061380e565b80601f016020809104026020016040519081016040528092919081815260200182805461223c9061380e565b80156122895780601f1061225e57610100808354040283529160200191612289565b820191906000526020600020905b81548152906001019060200180831161226c57829003601f168201915b505050505081525050905060006127108260e001516122a89190613875565b8260c001511015905060006301e133808361010001516122c89190613875565b421015905081806122d65750805b6122fa57604051806040016040528060028152602001614f4b60f01b81525061231f565b6040518060400160405280600b81526020016a536572766963652044756560a81b8152505b95945050505050565b600061233381612624565b6110557fe00629f427c6136ae9b856b472ff74184d9d0bee21b9336d8fbb33b66079065a83612631565b6001600160a01b03918216600090815260056020908152604080832093909416825291909152205460ff1690565b600e60205281600052604060002081815481106123a757600080fd5b9060005260206000209060030201600091509150508060000180546123cb9061380e565b80601f01602080910402602001604051908101604052809291908181526020018280546123f79061380e565b80156124445780601f1061241957610100808354040283529160200191612444565b820191906000526020600020905b81548152906001019060200180831161242757829003601f168201915b50505050509080600101549080600201805461245f9061380e565b80601f016020809104026020016040519081016040528092919081815260200182805461248b9061380e565b80156124d85780601f106124ad576101008083540402835291602001916124d8565b820191906000526020600020905b8154815290600101906020018083116124bb57829003601f168201915b5050505050905083565b60006001600160e01b03198216637965db0b60e01b14806107ca57506107ca826129da565b6000818152600260205260408120546001600160a01b0316806107ca57604051637e27328960e01b815260048101849052602401610be3565b61105583838360016129ff565b60008061255b858585612b05565b90506001600160a01b0381166125b8576125b384600880546000838152600960205260408120829055600182018355919091527ff3f7a9fe364faab93b216da50a3214154f22a0a2b415b23a84c8169e8b636ee30155565b6125db565b846001600160a01b0316816001600160a01b0316146125db576125db8185612bfe565b6001600160a01b0385166125f7576125f284612c7f565b61261a565b846001600160a01b0316816001600160a01b03161461261a5761261a8585612d2e565b90505b9392505050565b61262e8133612d7e565b50565b600061263d8383611442565b6126bd576000838152600a602090815260408083206001600160a01b03861684529091529020805460ff191660011790556126753390565b6001600160a01b0316826001600160a01b0316847f2f8788117e7eff1d82e926ec794901d17c78024a50270940304540a733656f0d60405160405180910390a45060016107ca565b5060006107ca565b60006126d18383611442565b156126bd576000838152600a602090815260408083206001600160a01b0386168085529252808320805460ff1916905551339286917ff6391f5c32d9c69d2a47ea670b442974b53935d1edc7fd64eb21e047a839171b9190a45060016107ca565b61172e848484612db7565b610b9a828260405180602001604052806000815250612e67565b6001600160a01b03821661278957604051630b61174360e31b81526001600160a01b0383166004820152602401610be3565b6001600160a01b03838116600081815260056020908152604080832094871680845294825291829020805460ff191686151590811790915591519182527f17307eab39ab6107e8899845ad3d59bd9653f200f220920489ca2b5937696c31910160405180910390a3505050565b6001600160a01b0383163b1561291a57604051630a85bd0160e11b81526001600160a01b0384169063150b7a0290612838908890889087908790600401613b36565b6020604051808303816000875af1925050508015612873575060408051601f3d908101601f1916820190925261287091810190613b69565b60015b6128dc573d8080156128a1576040519150601f19603f3d011682016040523d82523d6000602084013e6128a6565b606091505b5080516000036128d457604051633250574960e11b81526001600160a01b0385166004820152602401610be3565b805160208201fd5b6001600160e01b03198116630a85bd0160e11b1461291857604051633250574960e11b81526001600160a01b0385166004820152602401610be3565b505b5050505050565b6060600061292e83612e7f565b600101905060008167ffffffffffffffff81111561294e5761294e6134a6565b6040519080825280601f01601f191660200182016040528015612978576020820181803683370190505b5090508181016020015b600019016f181899199a1a9b1b9c1cb0b131b232b360811b600a86061a8153600a850494508461298257509392505050565b60606107ca82604051806060016040528060408152602001613bbf604091396001612f57565b60006001600160e01b0319821663780e9d6360e01b14806107ca57506107ca826130d7565b8080612a1357506001600160a01b03821615155b15612ad5576000612a2384612507565b90506001600160a01b03831615801590612a4f5750826001600160a01b0316816001600160a01b031614155b8015612a625750612a60818461235d565b155b15612a8b5760405163a9fbf51f60e01b81526001600160a01b0384166004820152602401610be3565b8115612ad35783856001600160a01b0316826001600160a01b03167f8c5be1e5ebec7d5bd14f71427d1e84f3dd0314c0f7b2291e5b200ac8c7c3b92560405160405180910390a45b505b5050600090815260046020526040902080546001600160a01b0319166001600160a01b0392909216919091179055565b6000828152600260205260408120546001600160a01b0390811690831615612b3257612b32818486613127565b6001600160a01b03811615612b7057612b4f6000856000806129ff565b6001600160a01b038116600090815260036020526040902080546000190190555b6001600160a01b03851615612b9f576001600160a01b0385166000908152600360205260409020805460010190555b60008481526002602052604080822080546001600160a01b0319166001600160a01b0389811691821790925591518793918516917fddf252ad1be2c89b69c2b068fc378daa952ba7f163c4a11628f55a4df523b3ef91a4949350505050565b6000612c09836113fa565b6000838152600760209081526040808320546001600160a01b0388168452600690925290912091925090818314612c6057600083815260208281526040808320548584528184208190558352600790915290208290555b6000938452600760209081526040808620869055938552525081205550565b600854600090612c91906001906138b7565b60008381526009602052604081205460088054939450909284908110612cb957612cb96138a1565b906000526020600020015490508060088381548110612cda57612cda6138a1565b6000918252602080832090910192909255828152600990915260408082208490558582528120556008805480612d1257612d12613b86565b6001900381819060005260206000200160009055905550505050565b60006001612d3b846113fa565b612d4591906138b7565b6001600160a01b039093166000908152600660209081526040808320868452825280832085905593825260079052919091209190915550565b612d888282611442565b610b9a5760405163e2517d3f60e01b81526001600160a01b038216600482015260248101839052604401610be3565b6001600160a01b038216612de157604051633250574960e11b815260006004820152602401610be3565b6000612def8383600061254d565b90506001600160a01b038116612e1b57604051637e27328960e01b815260048101839052602401610be3565b836001600160a01b0316816001600160a01b031614610c47576040516364283d7b60e01b81526001600160a01b0380861660048301526024820184905282166044820152606401610be3565b612e71838361318b565b6110553360008585856127f6565b60008072184f03e93ff9f4daa797ed6e38ed64bf6a1f0160401b8310612ebe5772184f03e93ff9f4daa797ed6e38ed64bf6a1f0160401b830492506040015b6d04ee2d6d415b85acef81000000008310612eea576d04ee2d6d415b85acef8100000000830492506020015b662386f26fc100008310612f0857662386f26fc10000830492506010015b6305f5e1008310612f20576305f5e100830492506008015b6127108310612f3457612710830492506004015b60648310612f46576064830492506002015b600a83106107ca5760010192915050565b60608351600003612f77575060408051602081019091526000815261261d565b600082612fa857600385516004612f8e919061385e565b612f99906002613875565b612fa39190613b9c565b612fcd565b600385516002612fb89190613875565b612fc29190613b9c565b612fcd90600461385e565b905060008167ffffffffffffffff811115612fea57612fea6134a6565b6040519080825280601f01601f191660200182016040528015613014576020820181803683370190505b50905060018501602082018788518901602081018051600082525b8284101561308a576003840193508351603f8160121c168701518653600186019550603f81600c1c168701518653600186019550603f8160061c168701518653600186019550603f811687015186535060018501945061302f565b9052505085156130cb576003885106600181146130ae57600281146130c1576130c9565b603d6001830353603d60028303536130c9565b603d60018303535b505b50909695505050505050565b60006001600160e01b031982166380ac58cd60e01b148061310857506001600160e01b03198216635b5e139f60e01b145b806107ca57506301ffc9a760e01b6001600160e01b03198316146107ca565b6131328383836131f0565b611055576001600160a01b03831661316057604051637e27328960e01b815260048101829052602401610be3565b60405163177e802f60e01b81526001600160a01b038316600482015260248101829052604401610be3565b6001600160a01b0382166131b557604051633250574960e11b815260006004820152602401610be3565b60006131c38383600061254d565b90506001600160a01b03811615611055576040516339e3563760e11b815260006004820152602401610be3565b60006001600160a01b0383161580159061261a5750826001600160a01b0316846001600160a01b0316148061322a575061322a848461235d565b8061261a5750506000908152600460205260409020546001600160a01b03908116911614919050565b6001600160e01b03198116811461262e57600080fd5b60006020828403121561327b57600080fd5b813561261d81613253565b60006020828403121561329857600080fd5b5035919050565b60005b838110156132ba5781810151838201526020016132a2565b50506000910152565b600081518084526132db81602086016020860161329f565b601f01601f19169290920160200192915050565b6020815260008251610140602084015261330d6101608401826132c3565b90506020840151601f1984830301604085015261332a82826132c3565b9150506040840151601f1984830301606085015261334882826132c3565b91505060608401516080840152608084015160a084015260a084015160c084015260c084015160e084015260e0840151610100840152610100840151610120840152610120840151601f198483030161014085015261231f82826132c3565b60208152600061261d60208301846132c3565b80356001600160a01b03811681146133d157600080fd5b919050565b600080604083850312156133e957600080fd5b6133f2836133ba565b946020939093013593505050565b60008060006060848603121561341557600080fd5b61341e846133ba565b925061342c602085016133ba565b929592945050506040919091013590565b6000806040838503121561345057600080fd5b82359150613460602084016133ba565b90509250929050565b60006020828403121561347b57600080fd5b61261d826133ba565b6000806040838503121561349757600080fd5b50508035926020909101359150565b634e487b7160e01b600052604160045260246000fd5b60008067ffffffffffffffff8411156134d7576134d76134a6565b50604051601f19601f85018116603f0116810181811067ffffffffffffffff82111715613506576135066134a6565b60405283815290508082840185101561351e57600080fd5b83836020830137600060208583010152509392505050565b600082601f83011261354757600080fd5b61261d838335602085016134bc565b600080600080600080600080610100898b03121561357357600080fd5b61357c896133ba565b9750602089013567ffffffffffffffff81111561359857600080fd5b6135a48b828c01613536565b975050604089013567ffffffffffffffff8111156135c157600080fd5b6135cd8b828c01613536565b965050606089013567ffffffffffffffff8111156135ea57600080fd5b6135f68b828c01613536565b9550506080890135935060a0890135925060c0890135915060e089013567ffffffffffffffff81111561362857600080fd5b6136348b828c01613536565b9150509295985092959890939650565b6000806040838503121561365757600080fd5b613660836133ba565b91506020830135801515811461367557600080fd5b809150509250929050565b6000806000806080858703121561369657600080fd5b61369f856133ba565b93506136ad602086016133ba565b925060408501359150606085013567ffffffffffffffff8111156136d057600080fd5b8501601f810187136136e157600080fd5b6136f0878235602084016134bc565b91505092959194509250565b6000806000806080858703121561371257600080fd5b8435935060208501359250604085013567ffffffffffffffff81111561373757600080fd5b61374387828801613536565b925050606085013567ffffffffffffffff81111561376057600080fd5b6136f087828801613536565b60208152600082516060602084015261378860808401826132c3565b9050602084015160408401526040840151601f1984830301606085015261231f82826132c3565b600080604083850312156137c257600080fd5b6137cb836133ba565b9150613460602084016133ba565b6060815260006137ec60608301866132c3565b846020840152828103604084015261380481856132c3565b9695505050505050565b600181811c9082168061382257607f821691505b60208210810361384257634e487b7160e01b600052602260045260246000fd5b50919050565b634e487b7160e01b600052601160045260246000fd5b80820281158282048414176107ca576107ca613848565b808201808211156107ca576107ca613848565b60ff82811682821603908111156107ca576107ca613848565b634e487b7160e01b600052603260045260246000fd5b818103818111156107ca576107ca613848565b601f82111561105557806000526020600020601f840160051c810160208510156138f15750805b601f840160051c820191505b8181101561291a57600081556001016138fd565b815167ffffffffffffffff81111561392b5761392b6134a6565b61393f81613939845461380e565b846138ca565b6020601f821160018114613973576000831561395b5750848201515b600019600385901b1c1916600184901b17845561291a565b600084815260208120601f198516915b828110156139a35787850151825560209485019460019092019101613983565b50848210156139c15786840151600019600387901b60f8161c191681555b50505050600190811b01905550565b6000600182016139e2576139e2613848565b5060010190565b838152606060208201526000613a0260608301856132c3565b828103604084015261380481856132c3565b607b60f81b81527f226e616d65223a2256656869636c652050617373706f72742023000000000000600182015260008351613a5681601b85016020880161329f565b61088b60f21b601b918401918201527f226465736372697074696f6e223a2244796e616d6963204e4654207061737370601d820152721bdc9d08199bdc881d995a1a58db195ccb888b606a1b603d820152681134b6b0b3b2911d1160b91b60508201528351613acc81605984016020880161329f565b61088b60f21b60599290910191820152607d60f81b605b820152605c01949350505050565b7f646174613a6170706c69636174696f6e2f6a736f6e3b6261736536342c000000815260008251613b2981601d85016020870161329f565b91909101601d0192915050565b6001600160a01b0385811682528416602082015260408101839052608060608201819052600090613804908301846132c3565b600060208284031215613b7b57600080fd5b815161261d81613253565b634e487b7160e01b600052603160045260246000fd5b600082613bb957634e487b7160e01b600052601260045260246000fd5b50049056fe4142434445464748494a4b4c4d4e4f505152535455565758595a6162636465666768696a6b6c6d6e6f707172737475767778797a303132333435363738392b2fa2646970667358221220251bd99687c28ad67837cd0610ac959615682d2f8da8b78a97b03f528dd114cd64736f6c634300081c0033",
  "linkReferences": {},
  "deployedLinkReferences": {}
}